S01A000042617369635F6F7363696C6C6F73636F70652E73726563BA
S11300000C9436000C9453000C9453000C9453003D
S11300100C9453000C9453000C9453000C94530010
S11300200C9453000C9453000C9453000C94530000
S11300300C9453000C9453000C9453000C945300F0
S11300400C9453000C9453000C94B5000C9453007E
S11300500C9453000C9453000C9453000C945300D0
S11300600C9453000C9453000C94530011241FBEA1
S1130070CFEFD4E0DEBFCDBF11E0A0E0B1E0EEEC05
S1130080F2E002C005900D92AC30B107D9F721E03F
S1130090ACE0B1E001C01D92A333B207E1F70E94C6
S11300A07A000C9465010C940000ECE7F0E0808188
S11300B08064808380818083EAE7F0E080818760C8
S11300C080838081806880830895EAE7F0E08081FE
S11300D080648083808186FDFDCF8091780090913B
S11300E079000895259A2D980E9455000E94E900F0
S11300F078940895CF93DF93CDB7DEB76C970FB69E
S1130100F894DEBF0FBECDBF0E9472008EE0DE0108
S11301101196FD01982F11929A95E9F792E09C832C
S11301202AE031E03A8729872DE231E0F901B383EF
S1130130A2831E96FD0111928A95E9F781E08A8BCC
S113014082E191E09A8F898FF901B183A08380E0E5
S113015091E00E9435010E94650099279595879545
S1130160959587950E940A01F6CF1F920F920FB6BC
S11301700F9211242F933F938F939F93AF93BF9329
S1130180EF93FF93ECE0F1E0A58DB68D8091C6006E
S11301908C93258D368D838D948D2817390729F4FA
S11301A0818D928D968F858F07C0ECE0F1E0858D6F
S11301B0968D0196968F858FFF91EF91BF91AF91A8
S11301C09F918F913F912F910F900FBE0F901F9091
S11301D018951092C50088E08093C400E1ECF0E02B
S11301E08081886080838081806180838081806851
S11301F08083ECE0F1E0F28FE18F84E291E0948F70
S1130200838F818D928D90A3878F818D928D968F10
S1130210858F0895E0ECF0E0908195FFFDCF809309
S1130220C6000895ECE0F1E0278D30A1858D968D10
S113023028173907C9F3ECE0F1E0A78DB0A18C9140
S1130240478D50A1238D348D4217530729F4218DF6
S1130250328D30A3278F0895ECE0F1E0278D30A193
S11302602F5F3F4F30A3278F08950F931F93CF9392
S1130270DF93E0912F01F0913001238121FF1BC016
S11302808C01D0E0C0E0F80181918F0160912F01D1
S113029070913001DB011896ED91FC911997882338
S11302A031F00995892B79F3DFEFCFEFECCF8AE0BA
S11302B00995892B19F08FEF9FEF02C08D2F9C2F8A
S11102C0DF91CF911F910F910895F894FFCF15
S10F02CE537461727475702E2E2E0D0096
S9030000FC
