:100000000C9436000C9453000C9453000C94530041
:100010000C9453000C9453000C9453000C94530014
:100020000C9453000C9453000C9453000C94530004
:100030000C9453000C9453000C9453000C945300F4
:100040000C9453000C9453000C9455000C945300E2
:100050000C9453000C9453000C9453000C945300D4
:100060000C9453000C9453000C94530011241FBEA5
:10007000CFEFD4E0DEBFCDBF11E0A0E0B1E0E6E617
:10008000F8E002C005900D92AC30B107D9F721E03D
:10009000ACE0B1E001C01D92A333B207E1F70E94CA
:1000A00044010C9431040C9400001F920F920090B4
:1000B0005F000F9211242F933F938F939F93EF93A1
:1000C000FF93CF93DF93CDB7DEB78091120190916C
:1000D000130126EC30E0F9012081FC0120832091FE
:1000E00012013091130180910E0190910F01281798
:1000F000390749F480910C0190910D0190931301FF
:100100008093120109C08091120190911301019610
:1001100090931301809312010000DF91CF91FF9122
:10012000EF919F918F913F912F910F9000925F00DF
:100130000F901F901895CF93DF9300D0CDB7DEB707
:1001400087E690E09A83898385EC90E029813A8163
:10015000232F3327FC01208384EC90E02981FC01CC
:10016000208381EC90E021EC30E0F90120812860CF
:10017000FC01208381EC90E021EC30E0F90120814A
:100180002061FC01208381EC90E021EC30E0F9015A
:1001900020812068FC01208384E191E090930D018F
:1001A00080930C018CE291E090930F0180930E01FB
:1001B00080910C0190910D01909313018093120195
:1001C00080910C0190910D01909311018093100189
:1001D000789400000F900F90DF91CF910895CF9306
:1001E000DF931F92CDB7DEB78983000080EC90E0EB
:1001F000FC018081882F90E080729927892BB1F3D0
:1002000086EC90E02981FC01208300000F90DF91B3
:10021000CF910895CF93DF931F92CDB7DEB7000043
:1002200020911001309111018091120190911301E0
:1002300028173907A9F38091100190911101FC0151
:1002400080818983209110013091110180910E01EC
:1002500090910F012817390749F480910C01909172
:100260000D01909311018093100109C0809110013C
:100270009091110101969093110180931001898151
:100280000F90DF91CF910895CF93DF93CDB7DEB775
:10029000C753D1400FB6F894DEBF0FBECDBF0E944A
:1002A0009B00CE01845E9E4F2EE0FC01322F119206
:1002B0003A95E9F7CE01845E9E4F22E0FC0123834C
:1002C000CE01845E9E4F2FEE30E0FC013187208707
:1002D000CE01845E9E4F9093300180932F01CE011A
:1002E000865D9E4F2EE0FC01322F11923A95E9F780
:1002F000CE01865D9E4F21E0FC012383CE01865D09
:100300009E4F2AE031E0FC0133872287CE01865DD3
:100310009E4F90932E0180932D0180E091E00E94EA
:10032000C303CE014D960E94990380E090E0AAEFAE
:10033000B3E489839A83AB83BC8320E030E04AE74F
:1003400055E469817A818B819C810E940403DC01E0
:10035000CB018B8B9C8BAD8BBE8B20E030E040E8DB
:100360005FE36B897C898D899E890E947E02882348
:100370002CF481E090E0988F8F8B3FC020E03FEF1E
:100380004FE757E46B897C898D899E890E94FF0223
:1003900018164CF520E030E040E251E469817A81A2
:1003A0008B819C810E940403DC01CB01BC01CD0147
:1003B0000E948302DC01CB01988F8F8B0FC080E9F4
:1003C00091E09A8F898F898D9A8D0197F1F79A8F95
:1003D000898F8F89988D0197988F8F8B8F89988DB2
:1003E000892B69F714C06B897C898D899E890E944D
:1003F0008302DC01CB01988F8F8B8F89988D9C8F26
:100400008B8F8B8D9C8D0197F1F79C8F8B8FCE01FD
:100410004D960E94C30380E090E0AAEFB3E48D8381
:100420009E83AF83B88720E030E04AE755E46D81D2
:100430007E818F8198850E940403DC01CB0189872E
:100440009A87AB87BC8720E030E040E85FE36985AE
:100450007A858B859C850E947E0288232CF481E01E
:1004600090E09E878D873FC020E03FEF4FE757E445
:1004700069857A858B859C850E94FF0218164CF54C
:1004800020E030E040E251E46D817E818F819885EB
:100490000E940403DC01CB01BC01CD010E94830258
:1004A000DC01CB019E878D870FC080E991E0988B9E
:1004B0008F878F8598890197F1F7988B8F878D8526
:1004C0009E8501979E878D878D859E85892B69F7EF
:1004D00014C069857A858B859C850E948302DC0126
:1004E000CB019E878D878D859E859A8B898B898987
:1004F0009A890197F1F79A8B898B13CF0E94B202E8
:1005000008F481E008950E94DE0288F09F5798F079
:10051000B92F9927B751B0F0E1F0660F771F881F08
:10052000991F1AF0BA95C9F714C0B13091F00E9422
:10053000F802B1E008950C94F802672F782F88270D
:10054000B85F39F0B93FCCF3869577956795B39549
:10055000D9F73EF490958095709561957F4F8F4FB8
:100560009F4F0895990F0008550FAA0BE0E8FEEF82
:1005700016161706E807F907C0F012161306E40767
:10058000F50798F0621B730B840B950B39F40A2660
:1005900061F0232B242B252B21F408950A2609F43E
:1005A000A140A6958FEF811D811D089557FD90589C
:1005B000440F551F59F05F3F71F04795880F97FB27
:1005C000991F61F09F3F79F08795089512161306E1
:1005D0001406551FF2CF4695F1DF08C01616170610
:1005E0001806991FF1CF8695710561050894089545
:1005F000E894BB2766277727CB0197F908950E94D7
:10060000B20208F48FEF08950E9417030C94880338
:100610000E947A0338F00E94810320F0952311F0A4
:100620000C9471030C94770311240C94F9020E942A
:10063000D60270F3959FC1F3950F50E0551F629F4E
:10064000F001729FBB27F00DB11D639FAA27F00D2B
:10065000B11DAA1F649F6627B00DA11D661F829F52
:100660002227B00DA11D621F739FB00DA11D621F37
:10067000839FA00D611D221F749F3327A00D611D54
:10068000231F849F600D211D822F762F6A2F112436
:100690009F5750409AF0F1F088234AF0EE0FFF1F69
:1006A000BB1F661F771F881F91505040A9F79E3FC0
:1006B000510580F00C9471030C94F9025F3FE4F350
:1006C000983ED4F3869577956795B795F795E79516
:1006D0009F5FC1F7FE2B880F911D9695879597F91F
:1006E000089597F99F6780E870E060E008959FEFB4
:1006F00080EC089500240A941616170618060906B9
:10070000089500240A941216130614060506089587
:10071000092E0394000C11F4882352F0BB0F40F40F
:10072000BF2B11F460FF04C06F5F7F4F8F4F9F4F4F
:1007300008950F931F93CF93DF93E0912D01F091D4
:100740002E01238120FD03C080E090E017C0C92F57
:10075000D82F082F192F80912D0190912E010E94E2
:10076000F3038F3F2FEF920779F3F80181938F0105
:100770000A9789F7319710828D2F9C2FDF91CF91A7
:100780001F910F9108950F931F93CF93DF93E091E3
:100790002F01F0913001238121FF1BC08C01D0E09B
:1007A000C0E0F80181918F0160912F0170913001BB
:1007B000DB011896ED91FC911997882331F009958A
:1007C000892B79F3DFEFCFEFECCF8AE00995892B06
:1007D00019F08FEF9FEF02C08D2F9C2FDF91CF91EB
:1007E0001F910F910895CF93DF93EC012B8120FF90
:1007F00033C026FF0AC02F7B2B838E819F810196F9
:100800009F838E838A8190E029C022FF0FC0E881F8
:10081000F9818081082E000C990B009719F4206251
:100820002B831AC03196F983E8830EC0EA85FB85D5
:10083000099597FF09C02B81019611F080E201C054
:1008400080E1822B8B8308C02E813F812F5F3F4F39
:100850003F832E83992702C08FEF9FEFDF91CF91C7
:060860000895F894FFCF9B
:0C086600537461727475702E2E2E0D00FC
:00000001FF
