:100000000C9436000C9440000C9440000C94420078
:100010000C9440000C9440000C9440000C94400060
:100020000C9440000C9440000C9440000C94400050
:100030000C9440000C9440000C9440000C94400040
:100040000C9440000C9440000C9440000C94400030
:100050000C9440000C9440000C9440000C94400020
:100060000C9440000C9440000C94400011241FBEDE
:10007000CFEFD4E0DEBFCDBF0E9468000C946B00D0
:100080000C9400001F920F920FB60F9211248F93C1
:100090009F9395B181E0892785B995B182E0892741
:1000A00085B99F918F910F900FBE0F901F9018955B
:1000B0002F98EBE6F0E0808180688083E8E6F0E04E
:1000C000808181608083789484B1836084B908954D
:0A00D0000E945800FFCFF894FFCF04
:00000001FF
