S01F000057726974696E675F6472697665725F736F6674776172652E737265636C
S11300000C9436000C9440000C9440000C94400076
S11300100C9440000C9440000C9440000C9440005C
S11300200C9440000C9440000C9440000C9440004C
S11300300C9440000C9440000C9440000C9440003C
S11300400C9440000C9440000C9440000C9440002C
S11300500C9440000C9440000C9440000C9440001C
S11300600C9440000C9440000C94400011241FBEDA
S1130070CFEFD4E0DEBFCDBF0E9442000C948E00CF
S11300800C940000CF93DF9300D0CDB7DEB70E946D
S11300905B008AEA89838AE18A83CE0101960E9401
S11300A088002FEF84E39CE0215080409040E1F7EA
S11300B000C00000F6CF239A2B9A2D9A259A229AF3
S11300C02A9A8CB5877F8CBD8CB58B7F8CBD8CB503
S11300D080618CBD8CB583608CBD8CB580648CBD17
S11300E00895CF93DF931F92CDB7DEB72A989EBDB4
S11300F00DB407FEFDCF9EB599838EBD0DB407FEEA
S1130100FDCF8EB589832A9A0F90DF91CF91089500
S1130110FC01808191810E9471000895F894FFCFC1
S9030000FC
