S0160000506F72745F61735F6F75747075742E7372656326
S11300000C9436000C9440000C9440000C94400076
S11300100C9440000C9440000C9440000C9440005C
S11300200C9440000C9440000C9440000C9440004C
S11300300C9440000C9440000C9440000C9440003C
S11300400C9440000C9440000C9440000C9440002C
S11300500C9440000C9440000C9440000C9440001C
S11300600C9440000C9440000C94400011241FBEDA
S1130070CFEFD4E0DEBFCDBF0E9442000C94580005
S11300800C940000259A2D9A2FEF89E698E12150CF
S113009080409040E1F700C000002D982FEF89E6E2
S11300A098E1215080409040E1F700C00000EBCF80
S10700B0F894FFCFEE
S9030000FC
