S0110000696E746572727570742E7372656326
S11300000C9436000C9440000C9440000C94420074
S11300100C9440000C9440000C9440000C9440005C
S11300200C9440000C9440000C9440000C9440004C
S11300300C9440000C9440000C9440000C9440003C
S11300400C9440000C9440000C9440000C9440002C
S11300500C9440000C9440000C9440000C9440001C
S11300600C9440000C9440000C94400011241FBEDA
S1130070CFEFD4E0DEBFCDBF0E9456000C945900F0
S11300800C9400001F920F920FB60F9211241D9A28
S11300900F900FBE0F901F90189580E880936B000F
S11300A081E0809368007894259A08950E944D0019
S10900B0FFCFF894FFCF1E
S9030000FC
