S0210000506F74656E74696F6D657465725F4C45445F64696D6D696E672E737265631C
S11300000C9436000C9440000C9440000C94400076
S11300100C9440000C9440000C9440000C9440005C
S11300200C9440000C9440000C9440000C9440004C
S11300300C9440000C9440000C9440000C9440003C
S11300400C9440000C9440000C9440000C9440002C
S11300500C9440000C9440000C9440000C9440001C
S11300600C9440000C9440000C94400011241FBEDA
S1130070CFEFD4E0DEBFCDBF0E9442000C946900F4
S11300800C9400000E945B000E946300C2E3D0E075
S1130090CE010E9463000E9465002196C436D105FA
S11300A0B9F7CE010E9463000E9465002197C23314
S11300B0D105B9F7EBCF84B5836884BD85B5856078
S11300C085BD569A089587BD089584E68A95F1F70B
S10900D00895F894FFCF2F
S9030000FC
