:100000000C9436000C9453000C9453000C94530041
:100010000C9453000C9453000C9453000C94530014
:100020000C9453000C9453000C9453000C94530004
:100030000C9453000C9453000C9453000C945300F4
:100040000C9453000C9453000C94E8000C9453004F
:100050000C9453000C9453000C9453000C945300D4
:100060000C9453000C9453000C94530011241FBEA5
:10007000CFEFD4E0DEBFCDBF11E0A0E0B1E0E0EF14
:10008000F8E002C005900D92AC31B107D9F721E03C
:10009000ACE1B1E001C01D92A334B207E1F70E94C8
:1000A0005A000C9476040C9400000E94A6000E9452
:1000B0001C010895CF93DF93CDB7DEB76C970FB6D1
:1000C000F894DEBF0FBECDBF0E9455008EE0DE016A
:1000D0001196FD01282F11922A95E9F792E09C8351
:1000E0002DE331E03A8729872DE331E0F901B3832D
:1000F000A2831E96FD0111928A95E9F781E08A8B11
:1001000085E491E09A8F898FF901B183A08380E023
:1001100091E00E947E0178940CE011E0FFEF23ED66
:1001200080E3F15020408040E1F700C0000088E407
:100130000E94CF001F928F931F930F930E9468011C
:100140001D9A0F900F900F900F90E8CF81E0809351
:10015000B90080E38093B80084E08093BC000895E8
:1001600084EA8093BC00ECEBF0E080818823ECF71C
:10017000089584E88093BC00ECEBF0E08081882354
:10018000ECF78091BB0008958093BB0084E88093D6
:10019000BC00ECEBF0E080818823ECF70895CF936E
:1001A000C82F0E94B0008C2F880F0E94C40080E0EE
:1001B0000E94C4000E94B0008C2F880F81600E94B2
:1001C000C4000E94B90094E99093BC00CF910895B7
:1001D0001F920F920FB60F9211242F933F938F937C
:1001E0009F93AF93BF93EF93FF93ECE1F1E0A58D65
:1001F000B68D8091C6008C93258D368D838D948D20
:100200002817390729F4818D928D968F858F07C025
:10021000ECE1F1E0858D968D0196968F858FFF91AB
:10022000EF91BF91AF919F918F913F912F910F903F
:100230000FBE0F901F9018951092C50088E0809314
:10024000C400E1ECF0E0808188608083808180617F
:100250008083808180688083ECE1F1E0F28FE18F20
:1002600084E391E0948F838F818D928D90A3878F0B
:10027000818D928D968F858F0895E0ECF0E09081CE
:1002800095FFFDCF8093C6000895ECE1F1E0278D46
:1002900030A1858D968D28173907C9F3ECE1F1E07F
:1002A000A78DB0A18C91478D50A1238D348D42171D
:1002B000530729F4218D328D30A3278F0895ECE167
:1002C000F1E0278D30A12F5F3F4F30A3278F089596
:1002D000A0E0B0E0EEE6F1E00C944F04AE014B5F1D
:1002E0005F4FFA0161917191AF0180913F0190914F
:1002F00040010E94AE01E2E00C946B040F931F9347
:10030000CF93DF93E0913F01F0914001238121FFE2
:100310001BC08C01D0E0C0E0F80181918F01609199
:100320003F0170914001DB011896ED91FC91199706
:10033000882331F00995892B79F3DFEFCFEFECCFEC
:100340008AE00995892B19F08FEF9FEF02C08D2F5E
:100350009C2FDF91CF911F910F910895ABE0B0E0FA
:10036000E4EBF1E00C943F046C017B018A01FC0199
:1003700017821682838181FFCCC1CE0101963C0198
:10038000F6019381F70193FD859193FF81917F01A0
:10039000882309F4BAC1853239F493FD859193FF1E
:1003A00081917F01853229F4B60190E00E94A50376
:1003B000E7CF912C212C312CFFE1F315D8F08B32B3
:1003C00079F038F4803279F08332A1F4232D206162
:1003D0001DC08D3261F0803369F4232D216016C079
:1003E000832D8260382EE32DE4603E2E2AC0F32D4B
:1003F000F8601DC037FC2DC020ED280F2A3040F0DA
:100400008E32B9F436FC81C1232D2064322E19C0FE
:1004100036FE06C08AE0989E200D1124922E11C04F
:10042000EAE02E9E200D1124222EF32DF0623F2EA5
:1004300008C08C3621F4832D8068382E02C088369F
:1004400041F4F70193FD859193FF81917F01811123
:10045000B3CF982F9F7D9554933028F40C5F1F4F96
:100460009FE399830DC0833631F0833771F0833574
:1004700009F059C021C0F801808189830E5F1F4FA8
:1004800088248394912C530113C02801F2E04F0E6D
:10049000511CF801A080B18036FE03C0692D70E0C8
:1004A00002C06FEF7FEFC5010E949A034C018201E9
:1004B000F32DFF773F2E16C0280122E0420E511C7B
:1004C000F801A080B18036FE03C0692D70E002C043
:1004D0006FEF7FEFC5010E948F034C01F32DF06891
:1004E0003F2E820133FC1BC0822D90E088169906B6
:1004F000B0F4B60180E290E00E94A5032A94F4CF04
:10050000F50137FC859137FE81915F01B60190E0DE
:100510000E94A50321102A9421E0821A91088114D7
:10052000910471F7E8C0843611F0893641F5F8017D
:1005300037FE07C060817181828193810C5F1F4FFC
:1005400008C060817181072E000C880B990B0E5F2B
:100550001F4FF32DFF763F2E97FF09C09095809592
:10056000709561957F4F8F4F9F4FF0683F2E2AE027
:1005700030E0A3010E94E103882E861845C085372C
:1005800031F4232D2F7EB22E2AE030E025C0932DAA
:10059000997FB92E8F36C1F018F4883579F0B5C03F
:1005A000803719F0883721F0B0C0E92FE061BE2E06
:1005B000B4FE0DC0FB2DF460BF2E09C034FE0AC08E
:1005C000292F2660B22E06C028E030E005C020E1C9
:1005D00030E002C020E132E0F801B7FE07C06081E0
:1005E0007181828193810C5F1F4F06C06081718190
:1005F00080E090E00E5F1F4FA3010E94E103882E70
:100600008618FB2DFF773F2E36FE0DC0232D2E7F43
:10061000A22E891458F434FE0BC032FC09C0832D7D
:100620008E7EA82E05C0B82CA32C03C0B82C01C008
:10063000B92CA4FE0FC0FE01E80DF11D80818033AE
:1006400021F49A2D997EA92E09C0A2FE06C0B3946A
:10065000B39404C08A2D867809F0B394A3FC11C02A
:10066000A0FE06C0B21488F4280C922C9B180EC071
:10067000B21460F4B60180E290E00E94A503B39446
:10068000F7CFB21418F42B1802C0982C212CA4FE1A
:1006900010C0B60180E390E00E94A503A2FE17C03F
:1006A000A1FC03C088E790E002C088E590E0B601B5
:1006B0000CC08A2D867859F0A1FE02C08BE201C0E1
:1006C00080E2A7FC8DE2B60190E00E94A5038914A8
:1006D00038F4B60180E390E00E94A5039A94F7CF26
:1006E0008A94F301E80DF11D8081B60190E00E942B
:1006F000A5038110F5CF222009F442CEB60180E295
:1007000090E00E94A5032A94F6CFF6018681978196
:1007100002C08FEF9FEF2B96E2E10C945B04FC018B
:100720000590615070400110D8F7809590958E0F1C
:100730009F1F0895FC016150704001900110D8F78F
:10074000809590958E0F9F1F08950F931F93CF93C1
:10075000DF93FB01238121FD03C08FEF9FEF2CC0AE
:1007600022FF16C0468157812481358142175307E5
:1007700044F4A081B1819D012F5F3F4F31832083DD
:100780008C93268137812F5F3F4F3783268314C098
:100790008B01EC01FB010084F185E02D0995892B8B
:1007A000E1F6D80116968D919C91179701961796B0
:1007B0009C938E931697CE01DF91CF911F910F914D
:1007C0000895FA01AA27283051F1203181F1E894E7
:1007D0006F936E7F6E5F7F4F8F4F9F4FAF4FB1E034
:1007E0003ED0B4E03CD0670F781F891F9A1FA11D2F
:1007F000680F791F8A1F911DA11D6A0F711D811D30
:10080000911DA11D20D009F468943F912AE0269FF4
:1008100011243019305D3193DEF6CF010895462F53
:100820004770405D4193B3E00FD0C9F7F6CF462F34
:100830004F70405D4A3318F0495D31FD405241939D
:1008400002D0A9F7EACFB4E0A6959795879577955A
:100850006795BA95C9F700976105710508959B01E1
:10086000AC010A2E06945795479537952795BA956A
:10087000C9F7620F731F841F951FA01D08952F9243
:100880003F924F925F926F927F928F929F92AF9220
:10089000BF92CF92DF92EF92FF920F931F93CF936D
:1008A000DF93CDB7DEB7CA1BDB0B0FB6F894DEBF04
:1008B0000FBECDBF09942A88398848885F846E842A
:1008C0007D848C849B84AA84B984C884DF80EE8074
:1008D000FD800C811B81AA81B981CE0FD11D0FB67D
:1008E000F894DEBF0FBECDBFED010895F894FFCFA1
:1008F000537461727475702E2E2E0D0074656D70B8
:0C0900003A202564205BB0435D0D0A0026
:00000001FF
